{
  "contractName": "Adoption",
  "abi": [
    {
      "constant": true,
      "inputs": [
        {
          "internalType": "uint256",
          "name": "",
          "type": "uint256"
        }
      ],
      "name": "adopters",
      "outputs": [
        {
          "internalType": "address",
          "name": "",
          "type": "address"
        }
      ],
      "payable": false,
      "stateMutability": "view",
      "type": "function"
    },
    {
      "constant": true,
      "inputs": [
        {
          "internalType": "uint256",
          "name": "",
          "type": "uint256"
        }
      ],
      "name": "ciencia",
      "outputs": [
        {
          "internalType": "uint256",
          "name": "",
          "type": "uint256"
        }
      ],
      "payable": false,
      "stateMutability": "view",
      "type": "function"
    },
    {
      "constant": true,
      "inputs": [
        {
          "internalType": "uint256",
          "name": "",
          "type": "uint256"
        }
      ],
      "name": "matematica",
      "outputs": [
        {
          "internalType": "uint256",
          "name": "",
          "type": "uint256"
        }
      ],
      "payable": false,
      "stateMutability": "view",
      "type": "function"
    },
    {
      "constant": true,
      "inputs": [
        {
          "internalType": "uint256",
          "name": "",
          "type": "uint256"
        }
      ],
      "name": "portugues",
      "outputs": [
        {
          "internalType": "uint256",
          "name": "",
          "type": "uint256"
        }
      ],
      "payable": false,
      "stateMutability": "view",
      "type": "function"
    },
    {
      "constant": false,
      "inputs": [
        {
          "internalType": "uint256",
          "name": "petId",
          "type": "uint256"
        },
        {
          "internalType": "uint256",
          "name": "petPo",
          "type": "uint256"
        },
        {
          "internalType": "uint256",
          "name": "petMa",
          "type": "uint256"
        },
        {
          "internalType": "uint256",
          "name": "petCi",
          "type": "uint256"
        }
      ],
      "name": "adopt",
      "outputs": [
        {
          "internalType": "uint256",
          "name": "",
          "type": "uint256"
        }
      ],
      "payable": false,
      "stateMutability": "nonpayable",
      "type": "function"
    },
    {
      "constant": true,
      "inputs": [],
      "name": "getAdopters",
      "outputs": [
        {
          "internalType": "address[16]",
          "name": "",
          "type": "address[16]"
        }
      ],
      "payable": false,
      "stateMutability": "view",
      "type": "function"
    },
    {
      "constant": true,
      "inputs": [],
      "name": "getPortugues",
      "outputs": [
        {
          "internalType": "uint256[16]",
          "name": "",
          "type": "uint256[16]"
        }
      ],
      "payable": false,
      "stateMutability": "view",
      "type": "function"
    },
    {
      "constant": true,
      "inputs": [],
      "name": "getMatematica",
      "outputs": [
        {
          "internalType": "uint256[16]",
          "name": "",
          "type": "uint256[16]"
        }
      ],
      "payable": false,
      "stateMutability": "view",
      "type": "function"
    },
    {
      "constant": true,
      "inputs": [],
      "name": "getCiencia",
      "outputs": [
        {
          "internalType": "uint256[16]",
          "name": "",
          "type": "uint256[16]"
        }
      ],
      "payable": false,
      "stateMutability": "view",
      "type": "function"
    }
  ],
  "bytecode": "0x608060405234801561001057600080fd5b50610699806100206000396000f3fe608060405234801561001057600080fd5b50600436106100935760003560e01c8063a646708511610066578063a6467085146101f2578063ad4de15714610234578063c6181d5c14610276578063c65f613d146102b8578063f407e01f146102fe57610093565b8063123e7e7c146100985780633de4eb17146100f857806343ae80d31461013e5780635139241b146101ac575b600080fd5b6100e2600480360360808110156100ae57600080fd5b8101908080359060200190929190803590602001909291908035906020019092919080359060200190929190505050610344565b6040518082815260200191505060405180910390f35b610100610442565b6040518082601060200280838360005b8381101561012b578082015181840152602081019050610110565b5050505090500191505060405180910390f35b61016a6004803603602081101561015457600080fd5b81019080803590602001909291905050506104c3565b604051808273ffffffffffffffffffffffffffffffffffffffff1673ffffffffffffffffffffffffffffffffffffffff16815260200191505060405180910390f35b6101b46104f6565b6040518082601060200280838360005b838110156101df5780820151818401526020810190506101c4565b5050505090500191505060405180910390f35b61021e6004803603602081101561020857600080fd5b8101908080359060200190929190505050610541565b6040518082815260200191505060405180910390f35b6102606004803603602081101561024a57600080fd5b8101908080359060200190929190505050610559565b6040518082815260200191505060405180910390f35b6102a26004803603602081101561028c57600080fd5b8101908080359060200190929190505050610571565b6040518082815260200191505060405180910390f35b6102c0610589565b6040518082601060200280838360005b838110156102eb5780820151818401526020810190506102d0565b5050505090500191505060405180910390f35b6103066105d4565b6040518082601060200280838360005b83811015610331578082015181840152602081019050610316565b5050505090500191505060405180910390f35b60008085101580156103575750600f8511155b61036057600080fd5b600084101580156103725750600a8411155b61037b57600080fd5b6000831015801561038d5750600a8311155b61039657600080fd5b600082101580156103a85750600a8211155b6103b157600080fd5b33600086601081106103bf57fe5b0160006101000a81548173ffffffffffffffffffffffffffffffffffffffff021916908373ffffffffffffffffffffffffffffffffffffffff160217905550836010866010811061040c57fe5b0181905550826020866010811061041f57fe5b0181905550816030866010811061043257fe5b0181905550849050949350505050565b61044a61061e565b60006010806020026040519081016040528092919082601080156104b9576020028201915b8160009054906101000a900473ffffffffffffffffffffffffffffffffffffffff1673ffffffffffffffffffffffffffffffffffffffff168152602001906001019080831161046f575b5050505050905090565b600081601081106104d057fe5b016000915054906101000a900473ffffffffffffffffffffffffffffffffffffffff1681565b6104fe610641565b6030601080602002604051908101604052809291908260108015610537576020028201915b815481526020019060010190808311610523575b5050505050905090565b6030816010811061054e57fe5b016000915090505481565b6020816010811061056657fe5b016000915090505481565b6010816010811061057e57fe5b016000915090505481565b610591610641565b60206010806020026040519081016040528092919082601080156105ca576020028201915b8154815260200190600101908083116105b6575b5050505050905090565b6105dc610641565b60108080602002604051908101604052809291908260108015610614576020028201915b815481526020019060010190808311610600575b5050505050905090565b604051806102000160405280601090602082028038833980820191505090505090565b60405180610200016040528060109060208202803883398082019150509050509056fea265627a7a72315820bb9e3a55246ab1c24384c44b7b3d43479c3db0fde75c38335e3648f8a51426f764736f6c63430005100032",
  "source": "pragma solidity ^0.5.0;\r\n\r\ncontract Adoption {\r\n\r\n    address[16] public adopters;\r\n    uint[16] public portugues;\r\n    uint[16] public matematica;\r\n    uint[16] public ciencia;\r\n\r\n    // Adopting a pet\r\n    function adopt(uint petId, uint petPo, uint petMa, uint petCi) public returns (uint) {\r\n    \r\n        require(petId >= 0 && petId <= 15);\r\n        require(petPo >= 0 && petPo <= 10);\r\n        require(petMa >= 0 && petMa <= 10);\r\n        require(petCi >= 0 && petCi <= 10);\r\n\r\n        adopters[petId] = msg.sender;\r\n        portugues[petId] = petPo;\r\n        matematica[petId] = petMa;\r\n        ciencia[petId] = petCi;\r\n\r\n        return petId;\r\n    }\r\n\r\n    // Retrieving the adopters\r\n    function getAdopters() public view returns (address[16] memory) {\r\n    \r\n        return adopters;\r\n    }\r\n\r\n    function getPortugues() public view returns (uint[16] memory) {\r\n    \r\n        return portugues;\r\n    }\r\n\r\n    function getMatematica() public view returns (uint[16] memory) {\r\n    \r\n        return matematica;\r\n    }\r\n\r\n    function getCiencia() public view returns (uint[16] memory) {\r\n    \r\n        return ciencia;\r\n    }\r\n\r\n}",
  "sourcePath": "C:/Users/Mirror/pet-shop-tutorial/contracts/Adoption.sol",
  "compiler": {
    "name": "solc",
    "version": "0.5.16+commit.9c3226ce.Emscripten.clang"
  },
  "schemaVersion": "3.4.1",
  "updatedAt": "2021-05-17T03:39:42.822Z",
  "networkType": "ethereum",
  "devdoc": {
    "methods": {}
  },
  "userdoc": {
    "methods": {}
  }
}